:100000000C944B010C9473010C9473010C947301C8
:100010000C9473010C9473010C9473010C94730190
:100020000C9473010C9473010C940A090C94D60778
:100030000C9473010C9473010C9473010C94730170
:100040000C9473010C9473010C9473010C94730160
:100050000C9473010C9473010C9473010C94A10122
:100060000C9473010C94F9040C942B050C947301FB
:100070000C9473010C9473010C9473010C94730130
:100080000C9473010C9473010C9473010C94730120
:100090000C9473010C9473010C9473010C94730110
:1000A0000C9473010C9473010C9473010408020105
:1000B00010408040102040804080080204018040B1
:1000C00020100201108010204040040404040403A6
:1000D00004050202020204030202020206060606E8
:1000E00006060404020202040000000025002800A5
:1000F0002B002E00310000000000240027002A0001
:100100002D003000080B000202020100090400006B
:100110000102020000052400100105240101010470
:10012000240206052406000107058103100040098A
:10013000040100020A000000070502024000000757
:1001400005830240000000C18081C112010002024B
:10015000000040412337800001010200011201002C
:1001600002000000404123378000010102000141EC
:10017000726475696E6F204C4C43004172647569FE
:100180006E6F204D6963726F000403090400000064
:1001900000000000002A2B280000000000000000E2
:1001A000000000000000000000000000002C9EB4D1
:1001B000A0A1A2A434A6A7A5AE362D3738271E1FAE
:1001C00020212223242526B333B62EB7B89F848559
:1001D000868788898A8B8C8D8E8F90919293949547
:1001E000969798999A9B9C9D2F3130A3AD35040525
:1001F000060708090A0B0C0D0E0F10111213141527
:10020000161718191A1B1C1DAFB1B0B5000904024E
:10021000000103000000092101010001226500071F
:1002200005840340000105010902A1010901A100A3
:10023000850105091901290315002501950375019B
:1002400081029501750581030501093009310938DD
:100250001581257F750895038106C0C00501090633
:10026000A1018502050719E029E71500250175019F
:10027000950881029501750881039506750815009A
:1002800025650507190029658100C00097019703BE
:100290005B053B0B9D0111241FBECFEFDAE0DEBFF3
:1002A000CDBF11E0A0E0B1E0EAE6FBE102C00590BD
:1002B0000D92A034B107D9F722E0A0E4B1E001C06B
:1002C0001D92A635B207E1F712E0C4E9D2E004C0FE
:1002D0002297FE010E946C0BCC38D107C9F70E940F
:1002E0009F050C94A80D0C94000040E855E260E0D6
:1002F00070E08FE491E00E94820326E040E855E23E
:1003000060E070E08FE991E00E9497048FE491E053
:100310000E9488038823D1F368EE73E080E491E0C3
:100320000E94B10961E08DE00C948C02089560E1B7
:1003300071E080E491E00C94EE0980E491E00C948B
:1003400080091F920F920FB60F9211242F933F93A3
:100350008F939F93AF93BF938091470190914801F2
:10036000A0914901B0914A013091460123E0230F49
:100370002D3720F40196A11DB11D05C026E8230FDD
:100380000296A11DB11D20934601809347019093D1
:100390004801A0934901B0934A0180914B0190918B
:1003A0004C01A0914D01B0914E010196A11DB11DCE
:1003B00080934B0190934C01A0934D01B0934E015B
:1003C000BF91AF919F918F913F912F910F900FBE51
:1003D0000F901F9018953FB7F89480914B01909122
:1003E0004C01A0914D01B0914E0126B5A89B05C0CE
:1003F0002F3F19F00196A11DB11D3FBF6627782F31
:10040000892F9A2F620F711D811D911D42E0660F89
:10041000771F881F991F4A95D1F70895CF92DF92D1
:10042000EF92FF92CF93DF936B017C010E94EB016F
:10043000EB01C114D104E104F10489F00E94040A23
:100440000E94EB016C1B7D0B683E734090F381E0D2
:10045000C81AD108E108F108C851DC4FEACFDF9192
:10046000CF91FF90EF90DF90CF900895789484B56E
:10047000826084BD84B5816084BD85B5826085BDA0
:1004800085B5816085BDEEE6F0E080818160808386
:10049000E1E8F0E010828081826080838081816069
:1004A0008083E0E8F0E0808181608083E1E9F0E032
:1004B000808182608083808181608083E0E9F0E0D8
:1004C000808181608083E1ECF0E0808184608083C2
:1004D000808182608083808181608083E3ECF0E0B2
:1004E000808181608083E0ECF0E0808182608083A5
:1004F000E2ECF0E0808181608083EAE7F0E08081D7
:100500008460808380818260808380818160808339
:100510008081806880830895CF93DF9390E0FC0111
:10052000E455FF4F2491FC01E653FF4F849188234B
:1005300049F190E0880F991FFC01EA50FF4FA59107
:10054000B49188519F4FFC01C591D4919FB761111F
:1005500008C0F8948C91209582238C938881822303
:100560000AC0623051F4F8948C91322F3095832375
:100570008C938881822B888304C0F8948C91822B81
:100580008C939FBFDF91CF910895CF93DF931F92FC
:10059000CDB7DEB76983DC01ED91FC910280F38178
:1005A000E02D41E050E0BE016F5F7F4F09950F9055
:1005B000DF91CF910895CF93DF93EC018C859D85DA
:1005C00097FF05C082E00E94AB069D878C878C85D3
:1005D0009D85DF91CF91089583E00C940009FC0183
:1005E0008485958597FD06C082E00E94530690E0C1
:1005F0000196089582E00E94530690E00895FC0160
:100600008485958597FD05C02FEF3FEF35872487BB
:10061000089582E00C94AB06CF93DF93EC018091B8
:100620000D01882331F083E00E94DC0618161906BC
:1006300034F081E090E09B838A8380E090E0DF915A
:10064000CF910895FC0120812E5F208342E450E089
:1006500064E071E080E80C947707FC01818190816F
:10066000913A59F4813209F03CC047E050E066E02D
:1006700071E080E00E94770743C0913291F58032AB
:1006800039F467E070E086E091E00E94A80706C0B8
:10069000823209F035C0828180930D01809106017C
:1006A00090910701A0910801B0910901803B94400D
:1006B000A105B105C1F480910D0180FD14C087E74B
:1006C00097E790930108809300082BE088E190E081
:1006D0000FB6F894A895809360000FBE2093600039
:1006E0000FC080E0089588E10FB6F8948093600011
:1006F000109260000FBEA895109201081092000899
:1007000081E008952FEF3FEFFC013587248708959E
:10071000CF93C0910D016AE070E080E090E00E940C
:100720000E0281E0C11101C080E0CF9108951092C6
:1007300052011092510188EE93E0A0E0B0E0809366
:10074000530190935401A0935501B093560185E154
:1007500091E09093500180934F018FEF9FEF909322
:100760005C0180935B010895FC01818D228D90E0F6
:10077000805C9F4F821B91098F7399270895FC011C
:10078000918D828D981731F0828DE80FF11D858D46
:1007900090E008958FEF9FEF0895FC01918D828D79
:1007A000981761F0828DDF01A80FB11D5D968C91C5
:1007B000928D9F5F9F73928F90E008958FEF9FEFD0
:1007C000089581E595E0892B49F080E090E0892B40
:1007D00029F00E94510581110C9400000895FC013C
:1007E000848DDF01A80FB11DA35ABF4F2C91848DBA
:1007F00090E001968F739927848FA689B7892C93EF
:10080000A089B1898C9180648C93938D848D981389
:1008100006C00288F389E02D80818F7D8083089552
:10082000CF93DF93EC01888D8823C9F0EA89FB8997
:10083000808185FD05C0A889B9898C9186FD0FC08E
:100840000FB607FCF5CF808185FFF2CFA889B98963
:100850008C9185FFEDCFCE010E94EF03E7CFDF91B2
:10086000CF910895CF92DF92FF920F931F93CF9372
:10087000DF931F92CDB7DEB76C01DC015B969C91D4
:100880005B975C968C915C97981307C05096ED919E
:10089000FC915197808185FD32C0F601038D10E0F7
:1008A0000F5F1F4F0F731127F02EF601848DF81282
:1008B00011C00FB607FCF9CFD6015096ED91FC910F
:1008C0005197808185FFF1CFC60169830E94EF03B4
:1008D0006981EBCF838DE80FF11DE35AFF4F6083F1
:1008E000D6015B960C935B975296ED91FC915397D2
:1008F00080818062808381E058968C930DC0D60100
:100900005696ED91FC91579760835096ED91FC912E
:10091000519780818064808381E090E00F90DF9127
:10092000CF911F910F91FF90DF90CF900895BF92CC
:10093000CF92DF92EF92FF92CF93DF93EC016A01A7
:100940007B01B22EE889F98982E08083411581EE2E
:10095000580761057105A1F060E079E08DE390E052
:10096000A70196010E94480B215031094109510904
:100970005695479537952795211580E1380798F0CA
:10098000E889F989108260E874E88EE190E0A701B7
:1009900096010E94480B2150310941095109569591
:1009A000479537952795EC85FD853083EE85FF8546
:1009B0002083188EEC89FD89B082EA89FB898081C9
:1009C00080618083EA89FB89808188608083EA89ED
:1009D000FB89808180688083EA89FB8980818F7DA3
:1009E0008083DF91CF91FF90EF90DF90CF90BF9009
:1009F00008951F920F920FB60F9211242F938F9389
:100A00009F93EF93FF93E091AF01F091B00180814C
:100A1000E091B501F091B60182FD12C09081809104
:100A2000B8018F5F8F732091B901821751F0E09167
:100A3000B801F0E0E156FE4F958F8093B80101C0F8
:100A40008081FF91EF919F918F912F910F900FBE19
:100A50000F901F9018951F920F920FB60F921124AE
:100A60002F933F934F935F936F937F938F939F93B6
:100A7000AF93BF93EF93FF938FE991E00E94EF0351
:100A8000FF91EF91BF91AF919F918F917F916F9166
:100A90005F914F913F912F910F900FBE0F901F903C
:100AA00018958FE991E00E94B40321E0892B09F4A5
:100AB00020E0822F08951092A2011092A10188EEE9
:100AC00093E0A0E0B0E08093A3019093A401A093F1
:100AD000A501B093A60185E291E09093A0018093D7
:100AE0009F018DEC90E09093AC018093AB018CEC76
:100AF00090E09093AE018093AD0188EC90E09093EC
:100B0000B0018093AF0189EC90E09093B2018093A3
:100B1000B1018AEC90E09093B4018093B3018EEC24
:100B200090E09093B6018093B5011092B8011092B5
:100B3000B9011092BA011092BB01089508950E9464
:100B400036020E949E058CE392E00E9460090E949A
:100B50007501C1EED3E00E9496012097E1F30E9457
:100B6000E103F9CFCF92DF92EF92FF920F931F93A1
:100B7000CF93DF936C017A01EB01E60EF71E00E0E4
:100B800010E0CE15DF0561F06991D601ED91FC9181
:100B90000190F081E02DC6010995080F191FF1CFD2
:100BA000C801DF91CF911F910F91FF90EF90DF90DF
:100BB000CF900895409140025091410220913E0211
:100BC00030913F0242175307B4F49091E8009570BA
:100BD000E1F39091E80092FD19C08093F1008091BB
:100BE00040029091410201968F739927892B19F445
:100BF0008EEF8093E800809140029091410201962F
:100C0000909341028093400281E0089580E008952E
:100C1000CF92DF92FF920F931F93CF93DF931F9298
:100C2000CDB7DEB7082F162F862F880F8E5F9983DA
:100C30000E94DA0583E00E94DA05F02EC02E998129
:100C4000D92E8C2D8F19811778F4F60184910E948A
:100C5000DA05082F80E00E94DA058023FFEFCF1A23
:100C6000DF0A8111EECF01C081E00F90DF91CF91BB
:100C70001F910F91FF90DF90CF900895615030F059
:100C80002091F100FC0120830196F8CF289A84E698
:100C90008093430208952FB7FC012083F894677076
:100CA0006093E9000895CF93DF931F92CDB7DEB72D
:100CB000682FCE0101960E944B068091F200998127
:100CC0009FBF0F90DF91CF910895FF920F931F93D5
:100CD000CF93DF9300D0CDB7DEB7F62E8A01909187
:100CE0004202992311F057FF03C08FEF9FEF2BC0F3
:100CF000682FCE0101967A830E944B068091F20004
:100D000090E0A8017A81801791070CF4AC01EF2DD7
:100D1000F72FF40E84E6FE1639F0289A80934302EA
:100D20009091F1009193F7CF4115510521F08091F9
:100D3000F200882321F089818FBFCA0104C08BE6AD
:100D40008093E800F8CF0F900F90DF91CF911F9123
:100D50000F91FF900895CF93DF931F92CDB7DEB729
:100D600041E050E0BE016F5F7F4F0E946506019732
:100D700019F4898190E002C08FEF9FEF0F90DF910F
:100D8000CF910895CF93DF931F92CDB7DEB7682F31
:100D9000CE0101960E944B069091E800892F807247
:100DA00095FF04C09091F20080E4891B99819FBF58
:100DB0000F90DF91CF9108956F927F928F929F92C3
:100DC000AF92BF92CF92DF92EF92FF920F931F9359
:100DD000CF93DF931F92CDB7DEB7782E7B01C42E61
:100DE000B52E80914202882369F0042F152F8AEFD7
:100DF000D82E872D8072982E9AE3A92E872D807485
:100E0000882E11C08FEF9FEF57C0872D0E94C2061A
:100E1000682E81110CC0DA94A9F361E070E080E0E3
:100E200090E00E940E020115110579F73BC0282FB2
:100E300030E0021713070CF4602E672DCE010196E7
:100E40000E944B068091E80085FF29C0262D30E0E6
:100E5000021B130B992039F06A948FEF6816B1F0DA
:100E60001092F100F9CFF701862D77FE07C081506F
:100E700058F094919093F1003196F9CF815020F081
:100E800091919093F100FACFE20EF31E8091E80069
:100E900085FF0FC00115110511F481100AC0898169
:100EA0008FBFC1CF5D9A84E6809344028C2D9B2D29
:100EB00003C0A092E800F3CF0F90DF91CF911F9174
:100EC0000F91FF90EF90DF90CF90BF90AF909F90E9
:100ED0008F907F906F9008951092E90010924102D8
:100EE0001092400290933F0280933E020895CF9269
:100EF000DF92FF920F931F93CF93DF9300D0CDB774
:100F0000DEB7F82E8A016B0101151105B1F0F6016B
:100F1000F7FE02C0849101C0808149835A830E94F8
:100F2000DA0501501109FFEFCF1ADF0A49815A8112
:100F30008111EACF8FEF9FEF01C0CA010F900F9090
:100F4000DF91CF911F910F91FF90DF90CF90089587
:100F50001F93CF93DF931F92CDB7DEB7162F20914B
:100F6000E80022FFFCCF612F79830E943E068BEFC1
:100F70008093E800812F7981972F0F90DF91CF9197
:100F80001F910895CF93DF931F92CDB7DEB71982DB
:100F9000CE0101960E942203CE0101960E94230AEF
:100FA000898190E00F90DF91CF9108951F920F9269
:100FB0000FB60F921124EF92FF920F931F932F936E
:100FC0003F934F935F936F937F938F939F93AF93D1
:100FD000BF93EF93FF93CF93DF93CDB7DEB76297C5
:100FE000DEBFCDBF1092E9008091E80083FFEBC027
:100FF00068E0CE010A960E943E0682EF8093E800E8
:101000009A8597FF05C08091E80080FFFCCF03C060
:101010008EEF8093E800892F807609F0B9C08B8528
:10102000811105C01092F1001092F100C5C0282F67
:101030002D7F213009F4C0C0853049F48091E8004B
:1010400080FFFCCF8C8580688093E300B5C086303C
:1010500009F076C02D85E888F988223071F580E0A6
:1010600090E02A8B0E946C070E94C20799E08E01D3
:101070000F5F1F4FF801392F11923A95E9F79983C5
:101080002A892A8391E09E8390E898879AEF99872E
:101090002091400230914102275F3F4F3C832B83D8
:1010A0008D83C7010E946C0749E050E0B80180E0E1
:1010B0000E9477070E94C2077FC0C7012A8B0E9447
:1010C0006C072A89223241F482E290E00E942E0AC3
:1010D000892B09F071C074C0213069F4888999891D
:1010E000089711F420933D0280913D02811118C0B0
:1010F0006DE571E01AC0233009F062C08C85882349
:1011000091F0823021F46DE08BE791E006C08130F0
:1011100009F056C06BE08FE691E00E9408064AC0D5
:101120006BE471E002C069E871E06115710509F4D2
:1011300047C0FB01449150E080E80E9477073CC023
:10114000873009F43DC0883021F481E08093F100BC
:1011500033C0893089F5937099F5E7E4F1E081E0D7
:1011600021E096E38093E9002093EB0034913093E3
:10117000EC009093ED008F5F3196853099F78EE704
:101180008093EA001092EA008C858093420214C09A
:10119000888999890E946C078E85811105C0CE01CE
:1011A0000A960E942D0306C0823051F4CE010A96A1
:1011B0000E94560A882321F08EEF8093E80003C036
:1011C00081E28093EB0062960FB6F894DEBF0FBE0B
:1011D000CDBFDF91CF91FF91EF91BF91AF919F91E3
:1011E0008F917F916F915F914F913F912F911F91BF
:1011F0000F91FF90EF900F900FBE0F901F901895DA
:101200008093E9008091F200882319F08AE38093AB
:10121000E80008951F920F920FB60F9211242F939A
:101220003F934F935F936F937F938F939F93AF936E
:10123000BF93EF93FF938091E1001092E10083FF51
:101240000FC01092E90091E09093EB001092EC0037
:1012500092E39093ED001092420298E09093F00098
:1012600082FF1DC083E00E94000980914402882310
:1012700039F080914402815080934402882369F0C0
:1012800080914302882359F08091430281508093DA
:101290004302811104C0289802C05D98F1CFFF91EC
:1012A000EF91BF91AF919F918F917F916F915F91DE
:1012B0004F913F912F910F900FBE0F901F90189557
:1012C0001092420281E08093D70080EA8093D80098
:1012D00082E189BD09B400FEFDCF61E070E080E0ED
:1012E00090E00E940E0280E98093D8008CE0809309
:1012F000E2001092E000559A209A5D98289808958F
:10130000FC01808191810C94080CCF93DF93EC0158
:1013100088819981009711F00E94080C1982188227
:101320001D821C821B821A82DF91CF9108950F9338
:101330001F93CF93DF93EC018B016F5F7F4F888109
:1013400099810E94970C009731F0998388831B83C1
:101350000A8381E001C080E0DF91CF911F910F915E
:101360000895CF93DF93EC0188819981892B29F02F
:101370008A819B818617970760F4CE010E949709A6
:10138000882341F08C819D81892B19F4E881F981B2
:10139000108281E0DF91CF910895EF92FF920F9339
:1013A0001F93CF93DF93EC017B018A01BA010E9466
:1013B000B109811104C0CE010E94850907C01D83B7
:1013C0000C83B701888199810E946A0DCE01DF915B
:1013D000CF911F910F91FF90EF900895FC01118222
:1013E000108213821282158214826115710559F0E0
:1013F000FB0101900020E9F7AF0141505109461B64
:10140000570B0C94CD0908950895FF920F931F93E5
:10141000CF93DF93EC01F62EE881F9810480F5810A
:10142000E02D09958C01E881F9810680F781E02D96
:101430006F2DCE010995C8019927DF91CF911F919A
:101440000F91FF900895FC0120812F5F208349E1D7
:1014500050E06DE072E080E80C94770745E650E0DC
:1014600066E272E080E80C947707EF92FF920F93A8
:101470001F93CF93DF931F92CDB7DEB789838B0184
:101480007A0141E050E0BE016F5F7F4F84E00E942F
:10149000DC06A701B80184E40E94DC060F90DF910E
:1014A000CF911F910F91FF90EF900895FC019181D2
:1014B0008081813A31F481E0913091F0933089F468
:1014C00011C0813271F49B3021F4828180930F012D
:1014D00005C09A3031F4828180930E0181E0089535
:1014E000089580E0089548E050E082E00C94350AC9
:1014F000CF93DF93DC01683818F0E8E7E60F25C0EA
:10150000E62FF0E067FF11C0E058F10981E090E0BC
:1015100001C0880FEA95EAF714969C911497982BCE
:1015200014969C931497E0E010C0E357FE4FE491AB
:10153000EE2309F440C0E7FF08C014968C9114977D
:10154000826014968C931497EF7716968C91169769
:101550008E1741F117968C9117978E1719F11896DF
:101560008C9118978E17F1F019968C9119978E1708
:10157000C9F01A968C911A978E17A1F01B968C9130
:101580001B978E1779F080E090E0ED01C80FD91F0E
:101590002E81211102C0EE8305C00196863091058F
:1015A000A1F709C0BD016C5F7F4FCD010E94730A96
:1015B00081E090E008C081E090E013969C938E93C8
:1015C000129780E090E0DF91CF910895683818F08D
:1015D000E8E7E60F25C0E62FF0E067FF12C0E0580D
:1015E000F10921E030E001C0220FEA95EAF72095E9
:1015F000DC0114963C911497322314963C93E0E05E
:101600000FC0E357FE4FE491EE2329F1E7FF08C036
:10161000DC0114962C9114972D7F14962C93EF7760
:1016200020E030E0EE2351F0DC01A20FB31F16964C
:101630004C9116974E1302C016961C922F5F3F4F87
:101640002630310579F7BC016C5F7F4F0E94730A29
:1016500081E090E0089580E090E00895FC0116821A
:10166000178210861186128613861482BC016C5F65
:101670007F4F0C94730A10925102109248021092FC
:10168000470285E391E090934602809345020895D6
:10169000A1E21A2EAA1BBB1BFD010DC0AA1FBB1F76
:1016A000EE1FFF1FA217B307E407F50720F0A21BE8
:1016B000B30BE40BF50B661F771F881F991F1A9455
:1016C00069F760957095809590959B01AC01BD017F
:1016D000CF010895EE0FFF1F0590F491E02D0994BE
:1016E000CF93DF938230910510F482E090E0E09197
:1016F0005402F091550220E030E0A0E0B0E03097D5
:1017000039F14081518148175907B8F048175907F6
:1017100071F482819381109729F013969C938E9394
:1017200012972CC0909355028093540227C0211524
:10173000310531F04217530718F0A901DB0101C050
:10174000EF019A01BD01DF010280F381E02DD7CFC7
:1017500021153105F9F0281B390B2430310580F4AF
:101760008A819B816115710521F0FB01938382833E
:1017700004C09093550280935402FE01329644C0F7
:10178000FE01E20FF31F81939193225031093983B7
:1017900028833AC02091520230915302232B41F406
:1017A00020910201309103013093530220935202A1
:1017B00020910001309101012115310541F42DB72F
:1017C0003EB74091040150910501241B350BE09177
:1017D0005202F0915302E217F307A0F42E1B3F0BC5
:1017E0002817390778F0AC014E5F5F4F2417350793
:1017F00048F04E0F5F1F5093530240935202819363
:10180000919302C0E0E0F0E0CF01DF91CF91089525
:10181000CF93DF93009709F487C0FC0132971382BE
:101820001282C0915402D0915502209781F42081F8
:101830003181280F391F80915202909153028217F3
:10184000930779F5F0935302E09352026DC0DE01E5
:1018500020E030E0AE17BF0750F412964D915C9136
:1018600013979D014115510509F1DA01F3CFB383B7
:10187000A28340815181840F951F8A179B0771F4C1
:101880008D919C911197840F951F0296918380836F
:1018900012968D919C911397938382832115310524
:1018A00029F4F0935502E09354023EC0D9011396F7
:1018B000FC93EE9312974D915D91A40FB51FEA171B
:1018C000FB0779F480819181840F951F0296D901DD
:1018D00011969C938E938281938113969C938E9301
:1018E0001297E0E0F0E08A819B81009719F0FE01F9
:1018F000EC01F9CFCE01029628813981820F931F26
:1019000020915202309153022817390769F4309719
:1019100029F4109255021092540202C013821282CE
:10192000D0935302C0935202DF91CF910895A0E06B
:10193000B0E0EDE9FCE00C94750DEC01CB012097D3
:1019400019F40E94700BB8C0FE01E60FF71F9E014C
:1019500022503109E217F30708F4ACC0D9010D9108
:101960001C91119706171707B8F00530110508F4F8
:101970009FC0A801445051094617570708F498C062
:1019800002501109061B170B019311936D937C9361
:10199000CF010E94080C8CC05B01A01AB10A4E0155
:1019A000800E911EA0915402B0915502612C712CB1
:1019B00060E070E0109709F449C0A815B905C9F5B1
:1019C000ED90FC901197670142E0C40ED11CCA143F
:1019D000DB0478F147018A189B08640142E0C40ED9
:1019E000D11C1296BC9012971396AC91B5E0CB1611
:1019F000D10440F0B282A38391828082D9018D9379
:101A00009C9309C00E5F1F4F0E0D1F1DF90111831E
:101A10000083EB2DFA2F6115710531F0DB01139670
:101A2000FC93EE93129744C0F0935502E093540256
:101A30003FC06D917C9111976616770608F43B01C3
:101A4000BD0112960D90BC91A02DB4CF60915202B1
:101A50007091530268157905E9F468167906D0F497
:101A600040910001509101014115510541F44DB7DC
:101A70005EB76091040170910501461B570BE41796
:101A8000F507C0F4F0935302E0935202F9019183F9
:101A900080830EC00E94700B7C01009759F0A80152
:101AA000BE010E94610DCE010E94080CC70104C056
:101AB000CE0102C080E090E0CDB7DEB7EEE00C943E
:101AC000910DFB01DC0102C001900D92415050408C
:101AD000D8F70895FB01DC0101900D920020E1F799
:101AE00008952F923F924F925F926F927F928F92C2
:101AF0009F92AF92BF92CF92DF92EF92FF920F939D
:101B00001F93CF93DF93CDB7DEB7CA1BDB0B0FB6A6
:101B1000F894DEBF0FBECDBF09942A883988488863
:101B20005F846E847D848C849B84AA84B984C884F9
:101B3000DF80EE80FD800C811B81AA81B981CE0FF0
:101B4000D11D0FB6F894DEBF0FBECDBFED010895D5
:101B500012E0C4E9D2E004C0FE010E946C0B2296A0
:0A1B6000C639D107C9F7F894FFCF8A
:101B6A0000005602800000E10000000000000101B0
:101B7A000000000000C5020C03EF02FF02DB02ECCA
:101B8A0002000000003204B205B403CD03BF031003
:101B9A000400000000050AB205780AE60A2E0B00C6
:00000001FF
